S01B0000677265656E5F686F7573655F6D6F6E69746F722E737265630E
S11300000C94B1000C94CE000C94CE000C94CE0051
S11300100C94CE000C94CE000C94CE000C94CE0024
S11300200C94CE000C94CE000C94CE000C94CE0014
S11300300C94CE000C9402030C94CE000C94CE00CD
S11300400C94A2030C94CE000C949B040C94C9044D
S11300500C94CE000C94B7030C94CE000C94CE00F8
S11300600C94CE000C94CE0000407A10F35A00A0F9
S1130070724E18090010A5D4E80000E8764817006D
S113008000E40B54020000CA9A3B000000E1F505AD
S1130090000080969800000040420F000000A086F7
S11300A001000000102700000000E8030000000029
S11300B06400000000000A000000000001000000CD
S11300C000002C76D888DC674F0823DFC1DFAE59E7
S11300D0E1B1B796E5E3E453C63AE651997696E87A
S11300E0E6C28426EB898C9B62ED407C6FFCEFBCFE
S11300F09C9F40F2BAA56FA5F490055A2AF75C9329
S11301006B6CF9676DC11BFCE0E40D47FEF520E65E
S1130110B500D0ED902E0300943577050080841E41
S1130120080000204E0A000000C80C333333330F9C
S1130130986E12831141EF8D2114893BE65516CF39
S1130140FEE6DB18D1844B381BF77C1D901DA4BB45
S1130150E424203284725E228100C9F124ECA1E5FA
S11301603D2711241FBECFEFD8E0DEBFCDBF11E085
S1130170A0E0B1E0ECE5F4E102C005900D92A436F4
S1130180B107D9F721E0A4E6B1E001C01D92A13B7B
S1130190B207E1F70E94EA010C942C0A0C940000C7
S11301A0FC01408121E030E002C0220F331F6A9538
S11301B0E2F7242B20830895FC01908121E030E0B4
S11301C002C0220F331F6A95E2F72095292320836A
S11301D00895FC01408121E030E002C0220F331F6A
S11301E06A95E2F7242B2083089585B1826085B94E
S11301F085E08A95F1F7000085B18D7F85B9089572
S1130200CF93C82F662321F085B1816085B903C0DF
S113021085B18E7F85B98AB180618AB98AB18062DD
S11302208AB98AB180648AB98AB180688AB98BB183
S11302308F778BB98BB18F7B8BB98BB18F7D8BB95A
S11302408BB18F7E8BB9CC231CF48BB180688BB9B6
S1130250C6FF03C08BB180648BB9C5FF03C08BB1EB
S113026080628BB9C4FF03C08BB180618BB90E94DB
S1130270F5008BB18F778BB98BB18F7B8BB98BB139
S11302808F7D8BB98BB18F7E8BB9C3FF03C08BB1CC
S113029080688BB9C2FF03C08BB180648BB9C1FF86
S11302A003C08BB180628BB9C0FF03C08BB1806186
S11302B08BB90E94F5008BB180618BB98BB18062E0
S11302C08BB98BB180648BB98BB180688BB987EBA8
S11302D09BE00197F1F700C00000CF91089560E022
S11302E00E9400010895611104C080580E946F01AA
S11302F0089580540E946F01089581E00E946F0167
S1130300089561E00E9400010895CF93DF93FC01FA
S113031003C00E948101FE01EF01219680818111B9
S1130320F8CFDF91CF910895CF93C82F84B1816026
S113033084B98AB180628AB984B1826084B98AB18D
S113034080618AB98AB180628AB98AB180648AB9C3
S11303508AB180688AB98FEF99EF0197F1F700C0ED
S113036000008BB180628BB98BB180618BB90E9424
S1130370F5008FE19EE40197F1F700C000000E94B0
S1130380F5008FEF90E00197F1F700C000000E94A4
S1130390F5008FEF90E00197F1F700C000008BB1FA
S11303A08F7E8BB90E94F5008FEF90E00197F1F7F3
S11303B000C0000088E20E946F0188E00E946F0183
S11303C00E947D0186E00E946F018C2F0E946F01C4
S11303D0CF910895CF93DF9300D000D01F92CDB773
S11303E0DEB78CE00E94940160E080E00E9473011B
S11303F080E091E00E94850161E080E00E94730149
S113040083E091E00E94850161E089E00E9473012C
S113041086E091E00E948501ECE7F0E08081806451
S1130420808380818F7780838081807F8083EAE7E7
S1130430F0E080818068808380818860808380810F
S11304408760808387E690E00E94F30489E091E06E
S11304500E9423050E944D04E1E8F0E080818D7F35
S11304608083808185608083AFE6B0E08C91816079
S11304708C9380818D7F808385B5856085BDEEE614
S1130480F0E080818160808364E084E290E00E94F7
S1130490D00065E084E290E00E94D00063E084E252
S11304A090E00E94D00062E084E290E00E94D000DC
S11304B062E08AE290E00E94D00063E08AE290E089
S11304C00E94D00078942FEF33E284EF2150304023
S11304D08040E1F700C000008091AF014AE0FE01D6
S11304E031967F01BF0190E00E948E0761E083E0B6
S11304F00E947301C7010E9485018EE20E9481015E
S113050083E291E00E942305C7010E9423058EE245
S11305100E940E058091B0014AE0B70190E00E946C
S11305208E07C7010E948501C7010E94230584E349
S113053091E00E942305FFEF21E13AE7F1502040CA
S11305403040E1F700C000006091660170916701DE
S11305508091680190916901870122E043E00E9443
S11305606E07F70101900020E9F7319785E290E0EA
S1130570918380838BE391E00E942305C7010E944D
S113058023058BE491E00E94230560E083E00E9450
S11305907301C7010E9485018AE0F70111928A95CF
S11305A0E9F7FFEF21E13AE7F15020403040E1F76D
S11305B000C000004AE0B701809164019091650198
S11305C00E948E07F70101900020E9F7319780E23D
S11305D09CE69183808388E790E09383828381E51E
S11305E091E00E942305C7010E9423058BE491E05A
S11305F00E94230561E08CE00E947301C7010E9400
S1130600850161CF1F920F920FB60F9211242F9381
S11306103F934F935F936F937F938F939F93AF9386
S1130620BF93EF93FF9388EB0E945C0482E00E94E7
S113063079040E94970489EB0E945C040E9483045D
S11306408093AF010E948D048093B0010E949704AF
S11306508091AF01863158F463E085E290E00E9416
S1130660E90062E085E290E00E94DC0018C0865157
S11306708D3058F463E085E290E00E94DC0062E093
S113068085E290E00E94DC000AC063E085E290E02D
S11306900E94DC0062E085E290E00E94E90086E4CA
S11306A00E945C0480E10E9479040E94970487E41C
S11306B00E945C040E94830410926401809365018B
S11306C00E948D042091640130916501282B3093A0
S11306D06501209364010E94970460916401709104
S11306E06501072E000C880B990B0E944C062AE921
S11306F039E949E95FE30E94A2050E941406709358
S11307006501609364016332710534F462E08BE245
S113071090E00E94E90005C062E08BE290E00E9454
S1130720DC00FF91EF91BF91AF919F918F917F91E9
S11307306F915F914F913F912F910F900FBE0F904A
S11307401F9018951F920F920FB60F9211248F933A
S1130750EF93FF93EAE7F0E0808180648083FF9168
S1130760EF918F910F900FBE0F901F9018951F92CD
S11307700F920FB60F921124CF92DF92EF92FF9255
S11307802F933F934F935F936F937F938F939F9395
S1130790AF93BF93EF93FF936091780070917900CA
S11307A080E090E00E944A0620E030E048EC52E409
S11307B00E94010720E030EC4FE754E40E94A205B8
S11307C09B01AC0160E070E088EC92E40E9430058B
S11307D06B017C01609366017093670180936801EB
S11307E09093690120E030E040E251E40E949D05CD
S11307F088235CF464E085E290E00E94E90065E00F
S113080085E290E00E94DC0033C020E030E040E26A
S113081051E4C701B6010E94FC068823ACF020E035
S113082030E048E452E4C701B6010E949D058823E4
S11308305CF464E085E290E00E94DC0065E085E21F
S113084090E00E94DC0014C020E030E048E452E470
S1130850C701B6010E94FC06181654F465E085E24F
S113086090E00E94E90064E085E290E00E94DC00F0
S1130870FF91EF91BF91AF919F918F917F916F9174
S11308805F914F913F912F91FF90EF90DF90CF9028
S11308900F900FBE0F901F90189587B18F7C87B96A
S11308A088B1806388B9E9EBF0E080818C7F808334
S11308B088E98093B800089594EA9093BC009091DD
S11308C0BC009923E4F78093BB0084E88093BC00C8
S11308D08091BC008823E4F78091B900887F883137
S11308E021F0803421F480E0089580E0089581E0CF
S11308F008958093BB0084E88093BC008091BC0081
S11309008823E4F7089584EC8093BC008091BC00B4
S11309108823E4F78091BB00089584E88093BC00A9
S11309208091BC008823E4F78091BB00089584E99A
S11309308093BC0008951F920F920FB60F9211245A
S11309402F938F939F93EF93FF938091C0002091F7
S1130950C6008C71E0916C01EF5FEF7190916B01B7
S1130960E91739F0E0936C01F0E0E159FE4F208380
S113097001C082E090916A01892B80936A01FF9102
S1130980EF919F918F912F910F900FBE0F901F9019
S113099018951F920F920FB60F9211248F939F9365
S11309A0EF93FF9390916E0180916D01981769F018
S11309B0E0916D01EF5FEF71E0936D01F0E0E157BD
S11309C0FE4F80818093C60005C0E1ECF0E0808199
S11309D08F7D8083FF91EF919F918F910F900FBE38
S11309E00F901F90189510926E0110926D01109245
S11309F06C0110926B01282F392F33231CF422E051
S1130A002093C00090789093C5008093C40088E937
S1130A108093C10086E08093C200089520916E0106
S1130A202F5F2F7190916D012917E1F3E22FF0E010
S1130A30E157FE4F808320936E01E1ECF0E080816A
S1130A40806280830895CF93DF93EC0103C02196E5
S1130A500E940E0588818111FACFDF91CF9108950C
S1130A605058BB27AA270E9448050C94C2060E942E
S1130A70B40638F00E94BB0620F039F49F3F19F405
S1130A8026F40C94B1060EF4E095E7FB0C94AB0647
S1130A90E92F0E94D30658F3BA1762077307840735
S1130AA0950720F079F4A6F50C94F5060EF4E0957C
S1130AB00B2EBA2FA02D0B01B90190010C01CA0114
S1130AC0A0011124FF27591B99F0593F50F4503EBF
S1130AD068F11A16F040A22F232F342F4427585FB1
S1130AE0F3CF469537952795A795F0405395C9F7C9
S1130AF07EF41F16BA0B620B730B840BBAF0915081
S1130B00A1F0FF0FBB1F661F771F881FC2F70EC01F
S1130B10BA0F621F731F841F48F4879577956795F2
S1130B20B795F7959E3F08F0B0CF9395880F08F0DE
S1130B309927EE0F9795879508950E94870608F4E4
S1130B4081E008950E94B6050C94C2060E94BB067B
S1130B5058F00E94B40640F029F45F3F29F00C9449
S1130B60AB0651110C94F6060C94B1060E94D30600
S1130B7068F39923B1F3552391F3951B550BBB27C8
S1130B80AA2762177307840738F09F5F5F4F220F0D
S1130B90331F441FAA1FA9F335D00E2E3AF0E0E804
S1130BA032D091505040E695001CCAF72BD0FE2F4E
S1130BB029D0660F771F881FBB1F261737074807E2
S1130BC0AB07B0E809F0BB0B802DBF01FF2793589A
S1130BD05F4F3AF09E3F510578F00C94AB060C94AD
S1130BE0F6065F3FE4F3983ED4F3869577956795D0
S1130BF0B795F7959F5FC9F7880F911D96958795CF
S1130C0097F90895E1E0660F771F881FBB1F6217ED
S1130C1073078407BA0720F0621B730B840BBA0BAB
S1130C20EE1F88F7E09508950E941B066894B111A1
S1130C300C94F60608950E94DB0688F09F5798F0FE
S1130C40B92F9927B751B0F0E1F0660F771F881FCD
S1130C50991F1AF0BA95C9F714C0B13091F00E94E7
S1130C60F506B1E008950C94F506672F782F8827D0
S1130C70B85F39F0B93FCCF3869577956795B3950E
S1130C80D9F73EF490958095709561957F4F8F4F7D
S1130C909F4F0895E89409C097FB3EF49095809582
S1130CA0709561957F4F8F4F9F4F9923A9F0F92F2E
S1130CB096E9BB279395F695879577956795B795AC
S1130CC0F111F8CFFAF4BB0F11F460FF1BC06F5F92
S1130CD07F4F8F4F9F4F16C0882311F096E911C0A4
S1130CE0772321F09EE8872F762F05C0662371F0C5
S1130CF096E8862F70E060E02AF09A95660F771FD9
S1130D00881FDAF7880F9695879597F90895990FB4
S1130D100008550FAA0BE0E8FEEF16161706E807C1
S1130D20F907C0F012161306E407F50798F0621BE2
S1130D30730B840B950B39F40A2661F0232B242BB7
S1130D40252B21F408950A2609F4A140A6958FEFD6
S1130D50811D811D089597F99F6780E870E060E028
S1130D6008959FEF80EC089500240A941616170640
S1130D7018060906089500240A9412161306140688
S1130D8005060895092E0394000C11F4882352F0EB
S1130D90BB0F40F4BF2B11F460FF04C06F5F7F4FA3
S1130DA08F4F9F4F089557FD9058440F551F59F08A
S1130DB05F3F71F04795880F97FB991F61F09F3F44
S1130DC079F087950895121613061406551FF2CF6D
S1130DD04695F1DF08C0161617061806991FF1CFBD
S1130DE086957105610508940895E894BB276627E4
S1130DF07727CB0197F908950E94870608F48FEFAF
S1130E0008950E9414070C94C2060E94B40638F098
S1130E100E94BB0620F0952311F00C94AB060C94B1
S1130E20B10611240C94F6060E94D30670F3959F24
S1130E30C1F3950F50E0551F629FF001729FBB27CD
S1130E40F00DB11D639FAA27F00DB11DAA1F649F69
S1130E506627B00DA11D661F829F2227B00DA11D1C
S1130E60621F739FB00DA11D621F839FA00D611DA2
S1130E70221F749F3327A00D611D231F849F600DC3
S1130E80211D822F762F6A2F11249F5750409AF0EC
S1130E90F1F088234AF0EE0FFF1FBB1F661F771F78
S1130EA0881F91505040A9F79E3F510580F00C9443
S1130EB0AB060C94F6065F3FE4F3983ED4F38695B4
S1130EC077956795B795F795E7959F5FC1F7FE2BE3
S1130ED0880F911D9695879597F90895EF920F9332
S1130EE01F93CF93DF93E80147FD02C034E001C0B4
S1130EF034E1042E000C550B57FF03C05195419566
S1130F005109E32E022F242FAE010E94B307CE0114
S1130F10DF91CF911F910F91EF900895BB274A3035
S1130F2031F4992322F4BDE2909581959F4F0C945E
S1130F309A07BB27FB015527AA27880F991FAA1FC9
S1130F40A41710F0A41B83955051B9F7A05DAA33E0
S1130F5008F0A95DA193009779F7B111B1931192AB
S1130F60CB010C94E509A9E0B0E0E9EBF7E00C94BF
S1130F70FB096A01122FB02E2BE3201720F0FF2467
S1130F80F394F00E02C02CE3F22E0F2D27E0AE01F5
S1130F904F5F5F4F0E940D09BC014981842F897006
S1130FA0813031F0E1FC06C0E0FE06C090E205C0ED
S1130FB09DE203C09BE201C090E05E2D507143FFAF
S1130FC03CC0911102C083E001C084E0811718F491
S1130FD0212F281B01C020E051110BC0F601822FE4
S1130FE030E2882319F031938150FBCFC20ED11C1B
S1130FF020E0992329F0D6019C93F60131966F01E4
S1131000C6010396E2FE0AC03EE4D6013C9341E4E5
S113101011964C93119712963C9306C03EE6F60146
S1131020308341E641833283FC01322F40E2332393
S113103009F442C041933150FACF42FF44C09111A8
S113104002C083E001C084E0811718F4212F281B1B
S113105001C020E051110BC0F601822F30E2882339
S113106019F031938150FBCFC20ED11C20E099239B
S113107029F0D6019C93F60131966F01C6010396BF
S1131080E2FE0BC039E4D6013C933EE411963C9356
S1131090119736E412963C9307C039E6F601308383
S11310A03EE6318336E63283FC01322F40E23323BD
S11310B019F041933150FBCFFC01E20FF11D108276
S11310C08EEF9FEFA6C021E030E0911102C020E036
S11310D030E0161617061CF4FB01319602C0E1E05D
S11310E0F0E02E0F3F1FBB2021F0EB2DF0E03196F6
S11310F002C0E0E0F0E02E0F3F1FE12FF0E02E17DA
S11311003F071CF4121B212F01C020E08E2D887193
S113111059F4F601822F30E2882319F0319381507B
S1131120FBCFC20ED11C20E0992329F0D6019C9359
S1131130F60131966F0151110BC0F601822F90E335
S1131140882319F091938150FBCFC20ED11C20E06B
S11311500F2D060F9A81342F307144FF03C0913351
S113116009F40150101624F4093018F008E001C005
S113117001E0AB0177FF02C040E050E0FB01E41B5B
S1131180F50BA1E0B0E0AC0FBD1FEA0FFB1F8EE230
S1131190A82E4B01801A91080B2D10E01195019592
S11311A011094F3FBFEF5B0721F4D601AC921196B2
S11311B06D01641775072CF08416950614F481816B
S11311C001C080E3415051093196D60111967D0149
S11311D04017510724F0D6018C936701E2CF6417BE
S11311E0750739F4963320F4953319F4311101C09D
S11311F081E3F6018083F701822F90E2882319F0BE
S113120091938150FBCFF701E20FF11D108280E032
S113121090E02996ECE00C94170A283008F027E0B7
S11312203327DA01990F311D87FD9160009661051E
S1131230710539F432602E5F3D9330E32A95E1F76E
S113124008959F3F30F080387105610509F03C5FD7
S11312503C5F3D93913008F08068911DDF93CF93FC
S11312601F930F93FF92EF92192F987F9695E92F72
S113127096959695E90FFF27EE53FF4F992733274D
S1131280EE24FF24A701E70105900894079428F4AD
S1131290360FE71EF81E491F511D660F771F881F62
S11312A0991F0694A1F70590079428F4E70EF81EF9
S11312B0491F561FC11D770F881F991F661F06946B
S11312C0A1F70590079428F4F80E491F561FC71F6D
S11312D0D11D880F991F661F771F0694A1F70590EB
S11312E0079420F4490F561FC71FD81F990F661F74
S11312F0771F881F0694A9F784911095177041F001
S1131300D695C79557954795F794E7941A95C1F7DD
S1131310E8E6F0E068941590159135916591959102
S113132005907FE27395E118F10A430B560BC90B44
S1131330D009C0F7E10CF11E431F561FC91FD01D71
S11313407EF4703311F48A95E6CFE894015030F0BE
S1131350080F0AF40027021708F4202F2395022F00
S11313607A3328F079E37D932A95E9F710C07D93C9
S11313702A9589F606949795679537951795179446
S1131380E118F10A430B560BC90BD00998F02395C9
S11313907E9173957A3308F070E37C932013B8F749
S11313A07E9170617D9330F0839571E37D9370E35A
S11313B02A95E1F71124EF90FF900F911F91CF919F
S11313C0DF91992787FD90950895DC01FC01672F33
S11313D071917723E1F7329704C07C916D93708308
S11313E06291AE17BF07C8F308952F923F924F92B0
S11313F05F926F927F928F929F92AF92BF92CF92A1
S1131400DF92EF92FF920F931F93CF93DF93CDB7A9
S1131410DEB7CA1BDB0B0FB6F894DEBF0FBECDBF21
S113142009942A88398848885F846E847D848C84F2
S11314309B84AA84B984C884DF80EE80FD800C81FB
S11314401B81AA81B981CE0FD11D0FB6F894DEBFDE
S10F14500FBECDBFED010895F894FFCF4E
S113145C533A00543A004C3A000D0A2D2D2D736565
S113146C6E736F72207363616E6E65722D2D2D20F9
S113147C0D0A0054656D706572617475726528434C
S113148C293A20000D0A20200D0A00536F696C20A4
S113149C4D6F6973747572653A20000D0A200D0A3C
S11314AC004C6967687420696E74656E736974792D
S10714BC3A200000CE
S9030000FC
