:100000000C9434000C943E000C943E000C943E0082
:100010000C943E000C943E000C943E000C943E0068
:100020000C943E000C943E000C943E000C943E0058
:100030000C943E000C943E000C943E000C943E0048
:100040000C943E000C943E000C943E000C943E0038
:100050000C943E000C943E000C943E000C943E0028
:100060000C943E000C943E0011241FBECFEFD8E04C
:10007000DEBFCDBF0E9440000C9466000C940000CF
:1000800084B1806284B985B18F7D85B987B1816083
:1000900087B988B1816088B98AB18E7F8AB98BB1FE
:1000A00081608BB92FEF81EE94E021508040904029
:1000B000E1F700C000004899F5CF95B180E28927AB
:1000C00085B998B181E0892788B9ECCFF894FFCF42
:00000001FF
